{
  "contractName": "ZombieHelper",
  "abi": [
    {
      "anonymous": false,
      "inputs": [
        {
          "indexed": false,
          "internalType": "uint256",
          "name": "zombieId",
          "type": "uint256"
        },
        {
          "indexed": false,
          "internalType": "string",
          "name": "name",
          "type": "string"
        },
        {
          "indexed": false,
          "internalType": "uint256",
          "name": "dna",
          "type": "uint256"
        }
      ],
      "name": "NewZombie",
      "type": "event"
    },
    {
      "anonymous": false,
      "inputs": [
        {
          "indexed": true,
          "internalType": "address",
          "name": "previousOwner",
          "type": "address"
        },
        {
          "indexed": true,
          "internalType": "address",
          "name": "newOwner",
          "type": "address"
        }
      ],
      "name": "OwnershipTransferred",
      "type": "event"
    },
    {
      "inputs": [
        {
          "internalType": "string",
          "name": "_name",
          "type": "string"
        }
      ],
      "name": "createRandomZombie",
      "outputs": [],
      "stateMutability": "nonpayable",
      "type": "function"
    },
    {
      "inputs": [
        {
          "internalType": "uint256",
          "name": "_zombieId",
          "type": "uint256"
        },
        {
          "internalType": "uint256",
          "name": "_kittyId",
          "type": "uint256"
        }
      ],
      "name": "feedOnKitty",
      "outputs": [],
      "stateMutability": "nonpayable",
      "type": "function"
    },
    {
      "inputs": [],
      "name": "owner",
      "outputs": [
        {
          "internalType": "address",
          "name": "",
          "type": "address"
        }
      ],
      "stateMutability": "view",
      "type": "function"
    },
    {
      "inputs": [],
      "name": "renounceOwnership",
      "outputs": [],
      "stateMutability": "nonpayable",
      "type": "function"
    },
    {
      "inputs": [
        {
          "internalType": "address",
          "name": "_address",
          "type": "address"
        }
      ],
      "name": "setKittyContractAddress",
      "outputs": [],
      "stateMutability": "nonpayable",
      "type": "function"
    },
    {
      "inputs": [
        {
          "internalType": "address",
          "name": "newOwner",
          "type": "address"
        }
      ],
      "name": "transferOwnership",
      "outputs": [],
      "stateMutability": "nonpayable",
      "type": "function"
    },
    {
      "inputs": [
        {
          "internalType": "uint256",
          "name": "",
          "type": "uint256"
        }
      ],
      "name": "zombieToOwner",
      "outputs": [
        {
          "internalType": "address",
          "name": "",
          "type": "address"
        }
      ],
      "stateMutability": "view",
      "type": "function"
    },
    {
      "inputs": [
        {
          "internalType": "uint256",
          "name": "",
          "type": "uint256"
        }
      ],
      "name": "zombies",
      "outputs": [
        {
          "internalType": "string",
          "name": "name",
          "type": "string"
        },
        {
          "internalType": "uint256",
          "name": "dna",
          "type": "uint256"
        },
        {
          "internalType": "uint32",
          "name": "level",
          "type": "uint32"
        },
        {
          "internalType": "uint32",
          "name": "readyTime",
          "type": "uint32"
        },
        {
          "internalType": "uint16",
          "name": "winCount",
          "type": "uint16"
        },
        {
          "internalType": "uint16",
          "name": "lossCount",
          "type": "uint16"
        }
      ],
      "stateMutability": "view",
      "type": "function"
    },
    {
      "inputs": [],
      "name": "withdraw",
      "outputs": [],
      "stateMutability": "nonpayable",
      "type": "function"
    },
    {
      "inputs": [
        {
          "internalType": "uint256",
          "name": "_fee",
          "type": "uint256"
        }
      ],
      "name": "setLevelUpFee",
      "outputs": [],
      "stateMutability": "nonpayable",
      "type": "function"
    },
    {
      "inputs": [
        {
          "internalType": "uint256",
          "name": "_zombieId",
          "type": "uint256"
        }
      ],
      "name": "levelUp",
      "outputs": [],
      "stateMutability": "payable",
      "type": "function"
    },
    {
      "inputs": [
        {
          "internalType": "uint256",
          "name": "_zombieId",
          "type": "uint256"
        },
        {
          "internalType": "string",
          "name": "_newName",
          "type": "string"
        }
      ],
      "name": "changeName",
      "outputs": [],
      "stateMutability": "nonpayable",
      "type": "function"
    },
    {
      "inputs": [
        {
          "internalType": "uint256",
          "name": "_zombieId",
          "type": "uint256"
        },
        {
          "internalType": "uint256",
          "name": "_newDna",
          "type": "uint256"
        }
      ],
      "name": "changeDna",
      "outputs": [],
      "stateMutability": "nonpayable",
      "type": "function"
    },
    {
      "inputs": [
        {
          "internalType": "address",
          "name": "_owner",
          "type": "address"
        }
      ],
      "name": "getZombiesByOwner",
      "outputs": [
        {
          "internalType": "uint256[]",
          "name": "",
          "type": "uint256[]"
        }
      ],
      "stateMutability": "view",
      "type": "function"
    }
  ],
  "bytecode": "0x60806040526010600155600154600a6200001a9190620002bc565b6002556201518060035566038d7ea4c680006008553480156200003c57600080fd5b506200005d620000516200006360201b60201c565b6200006b60201b60201c565b6200030d565b600033905090565b60008060009054906101000a900473ffffffffffffffffffffffffffffffffffffffff169050816000806101000a81548173ffffffffffffffffffffffffffffffffffffffff021916908373ffffffffffffffffffffffffffffffffffffffff1602179055508173ffffffffffffffffffffffffffffffffffffffff168173ffffffffffffffffffffffffffffffffffffffff167f8be0079c531659141344cd1fd0a4f28419497f9722a3daafe3b4186f6b6457e060405160405180910390a35050565b7f4e487b7100000000000000000000000000000000000000000000000000000000600052601160045260246000fd5b60008160011c9050919050565b6000808291508390505b6001851115620001bd578086048111156200019557620001946200012f565b5b6001851615620001a55780820291505b8081029050620001b5856200015e565b945062000175565b94509492505050565b600082620001d85760019050620002ab565b81620001e85760009050620002ab565b81600181146200020157600281146200020c5762000242565b6001915050620002ab565b60ff8411156200022157620002206200012f565b5b8360020a9150848211156200023b576200023a6200012f565b5b50620002ab565b5060208310610133831016604e8410600b84101617156200027c5782820a9050838111156200027657620002756200012f565b5b620002ab565b6200028b84848460016200016b565b92509050818404811115620002a557620002a46200012f565b5b81810290505b9392505050565b6000819050919050565b6000620002c982620002b2565b9150620002d683620002b2565b9250620003057fffffffffffffffffffffffffffffffffffffffffffffffffffffffffffffffff8484620001c6565b905092915050565b611e50806200031d6000396000f3fe6080604052600436106100dd5760003560e01c80635faf28801161007f5780638da5cb5b116100595780638da5cb5b1461028c578063c39cbef1146102b7578063ccf670f8146102e0578063f2fde38b14610309576100dd565b80635faf288014610223578063715018a61461024c5780637bff0a0114610263576100dd565b80633ccfd60b116100bb5780633ccfd60b146101695780634412e10414610180578063528b7b8f146101bd5780635f4623f1146101fa576100dd565b80630ce90ec2146100e257806317a7f4cc146100fe5780632052465e14610127575b600080fd5b6100fc60048036038101906100f791906112fc565b610332565b005b34801561010a57600080fd5b5061012560048036038101906101209190611329565b6103d5565b005b34801561013357600080fd5b5061014e600480360381019061014991906112fc565b6104f3565b6040516101609695949392919061144d565b60405180910390f35b34801561017557600080fd5b5061017e610603565b005b34801561018c57600080fd5b506101a760048036038101906101a29190611513565b610661565b6040516101b491906115fe565b60405180910390f35b3480156101c957600080fd5b506101e460048036038101906101df91906112fc565b6107b3565b6040516101f1919061162f565b60405180910390f35b34801561020657600080fd5b50610221600480360381019061021c9190611513565b6107e6565b005b34801561022f57600080fd5b5061024a60048036038101906102459190611329565b610832565b005b34801561025857600080fd5b5061026161091a565b005b34801561026f57600080fd5b5061028a6004803603810190610285919061177f565b61092e565b005b34801561029857600080fd5b506102a16109af565b6040516102ae919061162f565b60405180910390f35b3480156102c357600080fd5b506102de60048036038101906102d99190611828565b6109d8565b005b3480156102ec57600080fd5b50610307600480360381019061030291906112fc565b610acc565b005b34801561031557600080fd5b50610330600480360381019061032b9190611513565b610ade565b005b600854341461034057600080fd5b61038f60016004838154811061035957610358611888565b5b906000526020600020906003020160020160009054906101000a900463ffffffff1663ffffffff16610b6190919063ffffffff16565b600482815481106103a3576103a2611888565b5b906000526020600020906003020160020160006101000a81548163ffffffff021916908363ffffffff16021790555050565b6000600760009054906101000a900473ffffffffffffffffffffffffffffffffffffffff1673ffffffffffffffffffffffffffffffffffffffff1663e98b7f4d836040518263ffffffff1660e01b815260040161043291906118b7565b61014060405180830381865afa158015610450573d6000803e3d6000fd5b505050506040513d601f19601f82011682018060405250810190610474919061191f565b909192939495969798509091929394959697509091929394959650909192939495509091929394509091929350909192509091509050809150506104ee83826040518060400160405280600581526020017f6b69747479000000000000000000000000000000000000000000000000000000815250610b77565b505050565b6004818154811061050357600080fd5b906000526020600020906003020160009150905080600001805461052690611a2d565b80601f016020809104026020016040519081016040528092919081815260200182805461055290611a2d565b801561059f5780601f106105745761010080835404028352916020019161059f565b820191906000526020600020905b81548152906001019060200180831161058257829003601f168201915b5050505050908060010154908060020160009054906101000a900463ffffffff16908060020160049054906101000a900463ffffffff16908060020160089054906101000a900461ffff169080600201600a9054906101000a900461ffff16905086565b61060b610d13565b60006106156109af565b90508073ffffffffffffffffffffffffffffffffffffffff166108fc479081150290604051600060405180830381858888f1935050505015801561065d573d6000803e3d6000fd5b5050565b60606000600660008473ffffffffffffffffffffffffffffffffffffffff1673ffffffffffffffffffffffffffffffffffffffff1681526020019081526020016000205467ffffffffffffffff8111156106be576106bd611654565b5b6040519080825280602002602001820160405280156106ec5781602001602082028036833780820191505090505b5090506000805b6004805490508110156107a8578473ffffffffffffffffffffffffffffffffffffffff166005600083815260200190815260200160002060009054906101000a900473ffffffffffffffffffffffffffffffffffffffff1673ffffffffffffffffffffffffffffffffffffffff1603610795578083838151811061077a57610779611888565b5b602002602001018181525050818061079190611a8d565b9250505b80806107a090611a8d565b9150506106f3565b508192505050919050565b60056020528060005260406000206000915054906101000a900473ffffffffffffffffffffffffffffffffffffffff1681565b6107ee610d13565b80600760006101000a81548173ffffffffffffffffffffffffffffffffffffffff021916908373ffffffffffffffffffffffffffffffffffffffff16021790555050565b601482816004828154811061084a57610849611888565b5b906000526020600020906003020160020160009054906101000a900463ffffffff1663ffffffff16101561087d57600080fd5b836005600082815260200190815260200160002060009054906101000a900473ffffffffffffffffffffffffffffffffffffffff1673ffffffffffffffffffffffffffffffffffffffff163373ffffffffffffffffffffffffffffffffffffffff16146108e957600080fd5b83600486815481106108fe576108fd611888565b5b9060005260206000209060030201600101819055505050505050565b610922610d13565b61092c6000610d91565b565b6000600660003373ffffffffffffffffffffffffffffffffffffffff1673ffffffffffffffffffffffffffffffffffffffff168152602001908152602001600020541461097a57600080fd5b600061098582610e55565b90506064816109949190611b04565b8161099f9190611b35565b90506109ab8282610e9a565b5050565b60008060009054906101000a900473ffffffffffffffffffffffffffffffffffffffff16905090565b60028381600482815481106109f0576109ef611888565b5b906000526020600020906003020160020160009054906101000a900463ffffffff1663ffffffff161015610a2357600080fd5b846005600082815260200190815260200160002060009054906101000a900473ffffffffffffffffffffffffffffffffffffffff1673ffffffffffffffffffffffffffffffffffffffff163373ffffffffffffffffffffffffffffffffffffffff1614610a8f57600080fd5b848460048881548110610aa557610aa4611888565b5b90600052602060002090600302016000019190610ac3929190611189565b50505050505050565b610ad4610d13565b8060088190555050565b610ae6610d13565b600073ffffffffffffffffffffffffffffffffffffffff168173ffffffffffffffffffffffffffffffffffffffff1603610b55576040517f08c379a0000000000000000000000000000000000000000000000000000000008152600401610b4c90611bdb565b60405180910390fd5b610b5e81610d91565b50565b60008183610b6f9190611bfb565b905092915050565b826005600082815260200190815260200160002060009054906101000a900473ffffffffffffffffffffffffffffffffffffffff1673ffffffffffffffffffffffffffffffffffffffff163373ffffffffffffffffffffffffffffffffffffffff1614610be357600080fd5b600060048581548110610bf957610bf8611888565b5b90600052602060002090600302019050610c1281611111565b610c1b57600080fd5b60025484610c299190611b04565b935060006002858360010154610c3f9190611c35565b610c499190611c8b565b9050604051602001610c5a90611d13565b6040516020818303038152906040528051906020012084604051602001610c819190611d59565b6040516020818303038152906040528051906020012003610cc3576063606482610cab9190611b04565b82610cb69190611b35565b610cc09190611c35565b90505b610d026040518060400160405280600681526020017f4e6f4e616d65000000000000000000000000000000000000000000000000000081525082610e9a565b610d0b82611138565b505050505050565b610d1b61116b565b73ffffffffffffffffffffffffffffffffffffffff16610d396109af565b73ffffffffffffffffffffffffffffffffffffffff1614610d8f576040517f08c379a0000000000000000000000000000000000000000000000000000000008152600401610d8690611dbc565b60405180910390fd5b565b60008060009054906101000a900473ffffffffffffffffffffffffffffffffffffffff169050816000806101000a81548173ffffffffffffffffffffffffffffffffffffffff021916908373ffffffffffffffffffffffffffffffffffffffff1602179055508173ffffffffffffffffffffffffffffffffffffffff168173ffffffffffffffffffffffffffffffffffffffff167f8be0079c531659141344cd1fd0a4f28419497f9722a3daafe3b4186f6b6457e060405160405180910390a35050565b60008082604051602001610e699190611d59565b6040516020818303038152906040528051906020012060001c905060025481610e929190611b04565b915050919050565b60046040518060c00160405280848152602001838152602001600163ffffffff16815260200160035442610ece9190611c35565b63ffffffff168152602001600061ffff168152602001600061ffff1681525090806001815401808255809150506001900390600052602060002090600302016000909190919091506000820151816000019080519060200190610f3292919061120f565b506020820151816001015560408201518160020160006101000a81548163ffffffff021916908363ffffffff16021790555060608201518160020160046101000a81548163ffffffff021916908363ffffffff16021790555060808201518160020160086101000a81548161ffff021916908361ffff16021790555060a082015181600201600a6101000a81548161ffff021916908361ffff160217905550505060006001600480549050610fe79190611b35565b9050336005600083815260200190815260200160002060006101000a81548173ffffffffffffffffffffffffffffffffffffffff021916908373ffffffffffffffffffffffffffffffffffffffff16021790555061108e6001600660003373ffffffffffffffffffffffffffffffffffffffff1673ffffffffffffffffffffffffffffffffffffffff1681526020019081526020016000205461117390919063ffffffff16565b600660003373ffffffffffffffffffffffffffffffffffffffff1673ffffffffffffffffffffffffffffffffffffffff168152602001908152602001600020819055507f88f026aacbbecc90c18411df4b1185fd8d9be2470f1962f192bf84a27d0704b781848460405161110493929190611ddc565b60405180910390a1505050565b6000428260020160049054906101000a900463ffffffff1663ffffffff1611159050919050565b600354426111469190611c35565b8160020160046101000a81548163ffffffff021916908363ffffffff16021790555050565b600033905090565b600081836111819190611c35565b905092915050565b82805461119590611a2d565b90600052602060002090601f0160209004810192826111b757600085556111fe565b82601f106111d057803560ff19168380011785556111fe565b828001600101855582156111fe579182015b828111156111fd5782358255916020019190600101906111e2565b5b50905061120b9190611295565b5090565b82805461121b90611a2d565b90600052602060002090601f01602090048101928261123d5760008555611284565b82601f1061125657805160ff1916838001178555611284565b82800160010185558215611284579182015b82811115611283578251825591602001919060010190611268565b5b5090506112919190611295565b5090565b5b808211156112ae576000816000905550600101611296565b5090565b6000604051905090565b600080fd5b600080fd5b6000819050919050565b6112d9816112c6565b81146112e457600080fd5b50565b6000813590506112f6816112d0565b92915050565b600060208284031215611312576113116112bc565b5b6000611320848285016112e7565b91505092915050565b600080604083850312156113405761133f6112bc565b5b600061134e858286016112e7565b925050602061135f858286016112e7565b9150509250929050565b600081519050919050565b600082825260208201905092915050565b60005b838110156113a3578082015181840152602081019050611388565b838111156113b2576000848401525b50505050565b6000601f19601f8301169050919050565b60006113d482611369565b6113de8185611374565b93506113ee818560208601611385565b6113f7816113b8565b840191505092915050565b61140b816112c6565b82525050565b600063ffffffff82169050919050565b61142a81611411565b82525050565b600061ffff82169050919050565b61144781611430565b82525050565b600060c082019050818103600083015261146781896113c9565b90506114766020830188611402565b6114836040830187611421565b6114906060830186611421565b61149d608083018561143e565b6114aa60a083018461143e565b979650505050505050565b600073ffffffffffffffffffffffffffffffffffffffff82169050919050565b60006114e0826114b5565b9050919050565b6114f0816114d5565b81146114fb57600080fd5b50565b60008135905061150d816114e7565b92915050565b600060208284031215611529576115286112bc565b5b6000611537848285016114fe565b91505092915050565b600081519050919050565b600082825260208201905092915050565b6000819050602082019050919050565b611575816112c6565b82525050565b6000611587838361156c565b60208301905092915050565b6000602082019050919050565b60006115ab82611540565b6115b5818561154b565b93506115c08361155c565b8060005b838110156115f15781516115d8888261157b565b97506115e383611593565b9250506001810190506115c4565b5085935050505092915050565b6000602082019050818103600083015261161881846115a0565b905092915050565b611629816114d5565b82525050565b60006020820190506116446000830184611620565b92915050565b600080fd5b600080fd5b7f4e487b7100000000000000000000000000000000000000000000000000000000600052604160045260246000fd5b61168c826113b8565b810181811067ffffffffffffffff821117156116ab576116aa611654565b5b80604052505050565b60006116be6112b2565b90506116ca8282611683565b919050565b600067ffffffffffffffff8211156116ea576116e9611654565b5b6116f3826113b8565b9050602081019050919050565b82818337600083830152505050565b600061172261171d846116cf565b6116b4565b90508281526020810184848401111561173e5761173d61164f565b5b611749848285611700565b509392505050565b600082601f8301126117665761176561164a565b5b813561177684826020860161170f565b91505092915050565b600060208284031215611795576117946112bc565b5b600082013567ffffffffffffffff8111156117b3576117b26112c1565b5b6117bf84828501611751565b91505092915050565b600080fd5b600080fd5b60008083601f8401126117e8576117e761164a565b5b8235905067ffffffffffffffff811115611805576118046117c8565b5b602083019150836001820283011115611821576118206117cd565b5b9250929050565b600080600060408486031215611841576118406112bc565b5b600061184f868287016112e7565b935050602084013567ffffffffffffffff8111156118705761186f6112c1565b5b61187c868287016117d2565b92509250509250925092565b7f4e487b7100000000000000000000000000000000000000000000000000000000600052603260045260246000fd5b60006020820190506118cc6000830184611402565b92915050565b60008115159050919050565b6118e7816118d2565b81146118f257600080fd5b50565b600081519050611904816118de565b92915050565b600081519050611919816112d0565b92915050565b6000806000806000806000806000806101408b8d031215611943576119426112bc565b5b60006119518d828e016118f5565b9a505060206119628d828e016118f5565b99505060406119738d828e0161190a565b98505060606119848d828e0161190a565b97505060806119958d828e0161190a565b96505060a06119a68d828e0161190a565b95505060c06119b78d828e0161190a565b94505060e06119c88d828e0161190a565b9350506101006119da8d828e0161190a565b9250506101206119ec8d828e0161190a565b9150509295989b9194979a5092959850565b7f4e487b7100000000000000000000000000000000000000000000000000000000600052602260045260246000fd5b60006002820490506001821680611a4557607f821691505b602082108103611a5857611a576119fe565b5b50919050565b7f4e487b7100000000000000000000000000000000000000000000000000000000600052601160045260246000fd5b6000611a98826112c6565b91507fffffffffffffffffffffffffffffffffffffffffffffffffffffffffffffffff8203611aca57611ac9611a5e565b5b600182019050919050565b7f4e487b7100000000000000000000000000000000000000000000000000000000600052601260045260246000fd5b6000611b0f826112c6565b9150611b1a836112c6565b925082611b2a57611b29611ad5565b5b828206905092915050565b6000611b40826112c6565b9150611b4b836112c6565b925082821015611b5e57611b5d611a5e565b5b828203905092915050565b7f4f776e61626c653a206e6577206f776e657220697320746865207a65726f206160008201527f6464726573730000000000000000000000000000000000000000000000000000602082015250565b6000611bc5602683611374565b9150611bd082611b69565b604082019050919050565b60006020820190508181036000830152611bf481611bb8565b9050919050565b6000611c0682611411565b9150611c1183611411565b92508263ffffffff03821115611c2a57611c29611a5e565b5b828201905092915050565b6000611c40826112c6565b9150611c4b836112c6565b9250827fffffffffffffffffffffffffffffffffffffffffffffffffffffffffffffffff03821115611c8057611c7f611a5e565b5b828201905092915050565b6000611c96826112c6565b9150611ca1836112c6565b925082611cb157611cb0611ad5565b5b828204905092915050565b600081905092915050565b7f6b69747479000000000000000000000000000000000000000000000000000000600082015250565b6000611cfd600583611cbc565b9150611d0882611cc7565b600582019050919050565b6000611d1e82611cf0565b9150819050919050565b6000611d3382611369565b611d3d8185611cbc565b9350611d4d818560208601611385565b80840191505092915050565b6000611d658284611d28565b915081905092915050565b7f4f776e61626c653a2063616c6c6572206973206e6f7420746865206f776e6572600082015250565b6000611da6602083611374565b9150611db182611d70565b602082019050919050565b60006020820190508181036000830152611dd581611d99565b9050919050565b6000606082019050611df16000830186611402565b8181036020830152611e0381856113c9565b9050611e126040830184611402565b94935050505056fea264697066735822122059bc101656a0633d88bc18f5d11edd32f48bf5a62c74e62691291b19c52b4d7764736f6c634300080d0033",
  "immutableReferences": {},
  "source": "// SPDX-License-Identifier: MIT\npragma solidity ^0.8.0;\n\nimport \"./zombiefeeding.sol\";\nimport \"./SafeMath32.sol\";\n\ncontract ZombieHelper is ZombieFeeding {\n\n  uint levelUpFee = 0.001 ether;\n  using SafeMath32 for uint32;\n\n  modifier aboveLevel(uint _level, uint _zombieId) {\n    require(zombies[_zombieId].level >= _level);\n    _;\n  }\n\n  function withdraw() external onlyOwner {\n    address payable _owner = payable(owner());\n    _owner.transfer(address(this).balance);\n  }\n\n  function setLevelUpFee(uint _fee) external onlyOwner {\n    levelUpFee = _fee;\n  }\n\n  function levelUp(uint _zombieId) external payable {\n    require(msg.value == levelUpFee);\n    zombies[_zombieId].level = zombies[_zombieId].level.add(1);\n  }\n\n  function changeName(uint _zombieId, string calldata _newName) external aboveLevel(2, _zombieId) onlyOwnerOf(_zombieId) {\n    zombies[_zombieId].name = _newName;\n  }\n\n  function changeDna(uint _zombieId, uint _newDna) external aboveLevel(20, _zombieId) onlyOwnerOf(_zombieId) {\n    zombies[_zombieId].dna = _newDna;\n  }\n\n  function getZombiesByOwner(address _owner) external view returns(uint[] memory) {\n    uint[] memory result = new uint[](ownerZombieCount[_owner]);\n    uint counter = 0;\n    for (uint i = 0; i < zombies.length; i++) {\n      if (zombieToOwner[i] == _owner) {\n        result[counter] = i;\n        counter++;\n      }\n    }\n    return result;\n  }\n}\n",
  "sourcePath": "/Users/vasilis/Projects/cryptozombi/contracts/zombiehelper.sol",
  "compiler": {
    "name": "solc",
    "version": "0.8.13+commit.abaa5c0e.Emscripten.clang"
  },
  "schemaVersion": "3.4.10",
  "updatedAt": "2022-10-19T07:45:04.511Z",
  "devdoc": {
    "kind": "dev",
    "methods": {
      "owner()": {
        "details": "Returns the address of the current owner."
      },
      "renounceOwnership()": {
        "details": "Leaves the contract without owner. It will not be possible to call `onlyOwner` functions anymore. Can only be called by the current owner. NOTE: Renouncing ownership will leave the contract without an owner, thereby removing any functionality that is only available to the owner."
      },
      "transferOwnership(address)": {
        "details": "Transfers ownership of the contract to a new account (`newOwner`). Can only be called by the current owner."
      }
    },
    "version": 1
  },
  "userdoc": {
    "kind": "user",
    "methods": {},
    "version": 1
  }
}