{
  "contractName": "ZombieFeeding",
  "abi": [
    {
      "anonymous": false,
      "inputs": [
        {
          "indexed": false,
          "internalType": "uint256",
          "name": "zombieId",
          "type": "uint256"
        },
        {
          "indexed": false,
          "internalType": "string",
          "name": "name",
          "type": "string"
        },
        {
          "indexed": false,
          "internalType": "uint256",
          "name": "dna",
          "type": "uint256"
        }
      ],
      "name": "NewZombie",
      "type": "event"
    },
    {
      "anonymous": false,
      "inputs": [
        {
          "indexed": true,
          "internalType": "address",
          "name": "previousOwner",
          "type": "address"
        },
        {
          "indexed": true,
          "internalType": "address",
          "name": "newOwner",
          "type": "address"
        }
      ],
      "name": "OwnershipTransferred",
      "type": "event"
    },
    {
      "inputs": [
        {
          "internalType": "string",
          "name": "_name",
          "type": "string"
        }
      ],
      "name": "createRandomZombie",
      "outputs": [],
      "stateMutability": "nonpayable",
      "type": "function"
    },
    {
      "inputs": [],
      "name": "owner",
      "outputs": [
        {
          "internalType": "address",
          "name": "",
          "type": "address"
        }
      ],
      "stateMutability": "view",
      "type": "function"
    },
    {
      "inputs": [],
      "name": "renounceOwnership",
      "outputs": [],
      "stateMutability": "nonpayable",
      "type": "function"
    },
    {
      "inputs": [
        {
          "internalType": "address",
          "name": "newOwner",
          "type": "address"
        }
      ],
      "name": "transferOwnership",
      "outputs": [],
      "stateMutability": "nonpayable",
      "type": "function"
    },
    {
      "inputs": [
        {
          "internalType": "uint256",
          "name": "",
          "type": "uint256"
        }
      ],
      "name": "zombieToOwner",
      "outputs": [
        {
          "internalType": "address",
          "name": "",
          "type": "address"
        }
      ],
      "stateMutability": "view",
      "type": "function"
    },
    {
      "inputs": [
        {
          "internalType": "uint256",
          "name": "",
          "type": "uint256"
        }
      ],
      "name": "zombies",
      "outputs": [
        {
          "internalType": "string",
          "name": "name",
          "type": "string"
        },
        {
          "internalType": "uint256",
          "name": "dna",
          "type": "uint256"
        },
        {
          "internalType": "uint32",
          "name": "level",
          "type": "uint32"
        },
        {
          "internalType": "uint32",
          "name": "readyTime",
          "type": "uint32"
        },
        {
          "internalType": "uint16",
          "name": "winCount",
          "type": "uint16"
        },
        {
          "internalType": "uint16",
          "name": "lossCount",
          "type": "uint16"
        }
      ],
      "stateMutability": "view",
      "type": "function"
    },
    {
      "inputs": [
        {
          "internalType": "address",
          "name": "_address",
          "type": "address"
        }
      ],
      "name": "setKittyContractAddress",
      "outputs": [],
      "stateMutability": "nonpayable",
      "type": "function"
    },
    {
      "inputs": [
        {
          "internalType": "uint256",
          "name": "_zombieId",
          "type": "uint256"
        },
        {
          "internalType": "uint256",
          "name": "_kittyId",
          "type": "uint256"
        }
      ],
      "name": "feedOnKitty",
      "outputs": [],
      "stateMutability": "nonpayable",
      "type": "function"
    }
  ],
  "bytecode": "0x60806040526010600155600154600a6200001a9190620002b1565b600255620151806003553480156200003157600080fd5b5062000052620000466200005860201b60201c565b6200006060201b60201c565b62000302565b600033905090565b60008060009054906101000a900473ffffffffffffffffffffffffffffffffffffffff169050816000806101000a81548173ffffffffffffffffffffffffffffffffffffffff021916908373ffffffffffffffffffffffffffffffffffffffff1602179055508173ffffffffffffffffffffffffffffffffffffffff168173ffffffffffffffffffffffffffffffffffffffff167f8be0079c531659141344cd1fd0a4f28419497f9722a3daafe3b4186f6b6457e060405160405180910390a35050565b7f4e487b7100000000000000000000000000000000000000000000000000000000600052601160045260246000fd5b60008160011c9050919050565b6000808291508390505b6001851115620001b2578086048111156200018a576200018962000124565b5b60018516156200019a5780820291505b8081029050620001aa8562000153565b94506200016a565b94509492505050565b600082620001cd5760019050620002a0565b81620001dd5760009050620002a0565b8160018114620001f65760028114620002015762000237565b6001915050620002a0565b60ff84111562000216576200021562000124565b5b8360020a91508482111562000230576200022f62000124565b5b50620002a0565b5060208310610133831016604e8410600b8410161715620002715782820a9050838111156200026b576200026a62000124565b5b620002a0565b62000280848484600162000160565b925090508184048111156200029a576200029962000124565b5b81810290505b9392505050565b6000819050919050565b6000620002be82620002a7565b9150620002cb83620002a7565b9250620002fa7fffffffffffffffffffffffffffffffffffffffffffffffffffffffffffffffff8484620001bb565b905092915050565b6115a980620003126000396000f3fe608060405234801561001057600080fd5b50600436106100885760003560e01c8063715018a61161005b578063715018a61461012a5780637bff0a01146101345780638da5cb5b14610150578063f2fde38b1461016e57610088565b806317a7f4cc1461008d5780632052465e146100a9578063528b7b8f146100de5780635f4623f11461010e575b600080fd5b6100a760048036038101906100a29190610c77565b61018a565b005b6100c360048036038101906100be9190610cb7565b6102a8565b6040516100d596959493929190610dc8565b60405180910390f35b6100f860048036038101906100f39190610cb7565b6103b8565b6040516101059190610e71565b60405180910390f35b61012860048036038101906101239190610eb8565b6103eb565b005b610132610437565b005b61014e6004803603810190610149919061101a565b61044b565b005b6101586104cc565b6040516101659190610e71565b60405180910390f35b61018860048036038101906101839190610eb8565b6104f5565b005b6000600760009054906101000a900473ffffffffffffffffffffffffffffffffffffffff1673ffffffffffffffffffffffffffffffffffffffff1663e98b7f4d836040518263ffffffff1660e01b81526004016101e79190611063565b61014060405180830381865afa158015610205573d6000803e3d6000fd5b505050506040513d601f19601f8201168201806040525081019061022991906110cb565b909192939495969798509091929394959697509091929394959650909192939495509091929394509091929350909192509091509050809150506102a383826040518060400160405280600581526020017f6b69747479000000000000000000000000000000000000000000000000000000815250610578565b505050565b600481815481106102b857600080fd5b90600052602060002090600302016000915090508060000180546102db906111d9565b80601f0160208091040260200160405190810160405280929190818152602001828054610307906111d9565b80156103545780601f1061032957610100808354040283529160200191610354565b820191906000526020600020905b81548152906001019060200180831161033757829003601f168201915b5050505050908060010154908060020160009054906101000a900463ffffffff16908060020160049054906101000a900463ffffffff16908060020160089054906101000a900461ffff169080600201600a9054906101000a900461ffff16905086565b60056020528060005260406000206000915054906101000a900473ffffffffffffffffffffffffffffffffffffffff1681565b6103f3610714565b80600760006101000a81548173ffffffffffffffffffffffffffffffffffffffff021916908373ffffffffffffffffffffffffffffffffffffffff16021790555050565b61043f610714565b6104496000610792565b565b6000600660003373ffffffffffffffffffffffffffffffffffffffff1673ffffffffffffffffffffffffffffffffffffffff168152602001908152602001600020541461049757600080fd5b60006104a282610856565b90506064816104b19190611239565b816104bc9190611299565b90506104c8828261089b565b5050565b60008060009054906101000a900473ffffffffffffffffffffffffffffffffffffffff16905090565b6104fd610714565b600073ffffffffffffffffffffffffffffffffffffffff168173ffffffffffffffffffffffffffffffffffffffff160361056c576040517f08c379a00000000000000000000000000000000000000000000000000000000081526004016105639061133f565b60405180910390fd5b61057581610792565b50565b826005600082815260200190815260200160002060009054906101000a900473ffffffffffffffffffffffffffffffffffffffff1673ffffffffffffffffffffffffffffffffffffffff163373ffffffffffffffffffffffffffffffffffffffff16146105e457600080fd5b6000600485815481106105fa576105f961135f565b5b9060005260206000209060030201905061061381610b12565b61061c57600080fd5b6002548461062a9190611239565b935060006002858360010154610640919061138e565b61064a91906113e4565b905060405160200161065b9061146c565b604051602081830303815290604052805190602001208460405160200161068291906114b2565b60405160208183030381529060405280519060200120036106c45760636064826106ac9190611239565b826106b79190611299565b6106c1919061138e565b90505b6107036040518060400160405280600681526020017f4e6f4e616d6500000000000000000000000000000000000000000000000000008152508261089b565b61070c82610b39565b505050505050565b61071c610b6c565b73ffffffffffffffffffffffffffffffffffffffff1661073a6104cc565b73ffffffffffffffffffffffffffffffffffffffff1614610790576040517f08c379a000000000000000000000000000000000000000000000000000000000815260040161078790611515565b60405180910390fd5b565b60008060009054906101000a900473ffffffffffffffffffffffffffffffffffffffff169050816000806101000a81548173ffffffffffffffffffffffffffffffffffffffff021916908373ffffffffffffffffffffffffffffffffffffffff1602179055508173ffffffffffffffffffffffffffffffffffffffff168173ffffffffffffffffffffffffffffffffffffffff167f8be0079c531659141344cd1fd0a4f28419497f9722a3daafe3b4186f6b6457e060405160405180910390a35050565b6000808260405160200161086a91906114b2565b6040516020818303038152906040528051906020012060001c9050600254816108939190611239565b915050919050565b60046040518060c00160405280848152602001838152602001600163ffffffff168152602001600354426108cf919061138e565b63ffffffff168152602001600061ffff168152602001600061ffff1681525090806001815401808255809150506001900390600052602060002090600302016000909190919091506000820151816000019080519060200190610933929190610b8a565b506020820151816001015560408201518160020160006101000a81548163ffffffff021916908363ffffffff16021790555060608201518160020160046101000a81548163ffffffff021916908363ffffffff16021790555060808201518160020160086101000a81548161ffff021916908361ffff16021790555060a082015181600201600a6101000a81548161ffff021916908361ffff1602179055505050600060016004805490506109e89190611299565b9050336005600083815260200190815260200160002060006101000a81548173ffffffffffffffffffffffffffffffffffffffff021916908373ffffffffffffffffffffffffffffffffffffffff160217905550610a8f6001600660003373ffffffffffffffffffffffffffffffffffffffff1673ffffffffffffffffffffffffffffffffffffffff16815260200190815260200160002054610b7490919063ffffffff16565b600660003373ffffffffffffffffffffffffffffffffffffffff1673ffffffffffffffffffffffffffffffffffffffff168152602001908152602001600020819055507f88f026aacbbecc90c18411df4b1185fd8d9be2470f1962f192bf84a27d0704b7818484604051610b0593929190611535565b60405180910390a1505050565b6000428260020160049054906101000a900463ffffffff1663ffffffff1611159050919050565b60035442610b47919061138e565b8160020160046101000a81548163ffffffff021916908363ffffffff16021790555050565b600033905090565b60008183610b82919061138e565b905092915050565b828054610b96906111d9565b90600052602060002090601f016020900481019282610bb85760008555610bff565b82601f10610bd157805160ff1916838001178555610bff565b82800160010185558215610bff579182015b82811115610bfe578251825591602001919060010190610be3565b5b509050610c0c9190610c10565b5090565b5b80821115610c29576000816000905550600101610c11565b5090565b6000604051905090565b600080fd5b600080fd5b6000819050919050565b610c5481610c41565b8114610c5f57600080fd5b50565b600081359050610c7181610c4b565b92915050565b60008060408385031215610c8e57610c8d610c37565b5b6000610c9c85828601610c62565b9250506020610cad85828601610c62565b9150509250929050565b600060208284031215610ccd57610ccc610c37565b5b6000610cdb84828501610c62565b91505092915050565b600081519050919050565b600082825260208201905092915050565b60005b83811015610d1e578082015181840152602081019050610d03565b83811115610d2d576000848401525b50505050565b6000601f19601f8301169050919050565b6000610d4f82610ce4565b610d598185610cef565b9350610d69818560208601610d00565b610d7281610d33565b840191505092915050565b610d8681610c41565b82525050565b600063ffffffff82169050919050565b610da581610d8c565b82525050565b600061ffff82169050919050565b610dc281610dab565b82525050565b600060c0820190508181036000830152610de28189610d44565b9050610df16020830188610d7d565b610dfe6040830187610d9c565b610e0b6060830186610d9c565b610e186080830185610db9565b610e2560a0830184610db9565b979650505050505050565b600073ffffffffffffffffffffffffffffffffffffffff82169050919050565b6000610e5b82610e30565b9050919050565b610e6b81610e50565b82525050565b6000602082019050610e866000830184610e62565b92915050565b610e9581610e50565b8114610ea057600080fd5b50565b600081359050610eb281610e8c565b92915050565b600060208284031215610ece57610ecd610c37565b5b6000610edc84828501610ea3565b91505092915050565b600080fd5b600080fd5b7f4e487b7100000000000000000000000000000000000000000000000000000000600052604160045260246000fd5b610f2782610d33565b810181811067ffffffffffffffff82111715610f4657610f45610eef565b5b80604052505050565b6000610f59610c2d565b9050610f658282610f1e565b919050565b600067ffffffffffffffff821115610f8557610f84610eef565b5b610f8e82610d33565b9050602081019050919050565b82818337600083830152505050565b6000610fbd610fb884610f6a565b610f4f565b905082815260208101848484011115610fd957610fd8610eea565b5b610fe4848285610f9b565b509392505050565b600082601f83011261100157611000610ee5565b5b8135611011848260208601610faa565b91505092915050565b6000602082840312156110305761102f610c37565b5b600082013567ffffffffffffffff81111561104e5761104d610c3c565b5b61105a84828501610fec565b91505092915050565b60006020820190506110786000830184610d7d565b92915050565b60008115159050919050565b6110938161107e565b811461109e57600080fd5b50565b6000815190506110b08161108a565b92915050565b6000815190506110c581610c4b565b92915050565b6000806000806000806000806000806101408b8d0312156110ef576110ee610c37565b5b60006110fd8d828e016110a1565b9a5050602061110e8d828e016110a1565b995050604061111f8d828e016110b6565b98505060606111308d828e016110b6565b97505060806111418d828e016110b6565b96505060a06111528d828e016110b6565b95505060c06111638d828e016110b6565b94505060e06111748d828e016110b6565b9350506101006111868d828e016110b6565b9250506101206111988d828e016110b6565b9150509295989b9194979a5092959850565b7f4e487b7100000000000000000000000000000000000000000000000000000000600052602260045260246000fd5b600060028204905060018216806111f157607f821691505b602082108103611204576112036111aa565b5b50919050565b7f4e487b7100000000000000000000000000000000000000000000000000000000600052601260045260246000fd5b600061124482610c41565b915061124f83610c41565b92508261125f5761125e61120a565b5b828206905092915050565b7f4e487b7100000000000000000000000000000000000000000000000000000000600052601160045260246000fd5b60006112a482610c41565b91506112af83610c41565b9250828210156112c2576112c161126a565b5b828203905092915050565b7f4f776e61626c653a206e6577206f776e657220697320746865207a65726f206160008201527f6464726573730000000000000000000000000000000000000000000000000000602082015250565b6000611329602683610cef565b9150611334826112cd565b604082019050919050565b600060208201905081810360008301526113588161131c565b9050919050565b7f4e487b7100000000000000000000000000000000000000000000000000000000600052603260045260246000fd5b600061139982610c41565b91506113a483610c41565b9250827fffffffffffffffffffffffffffffffffffffffffffffffffffffffffffffffff038211156113d9576113d861126a565b5b828201905092915050565b60006113ef82610c41565b91506113fa83610c41565b92508261140a5761140961120a565b5b828204905092915050565b600081905092915050565b7f6b69747479000000000000000000000000000000000000000000000000000000600082015250565b6000611456600583611415565b915061146182611420565b600582019050919050565b600061147782611449565b9150819050919050565b600061148c82610ce4565b6114968185611415565b93506114a6818560208601610d00565b80840191505092915050565b60006114be8284611481565b915081905092915050565b7f4f776e61626c653a2063616c6c6572206973206e6f7420746865206f776e6572600082015250565b60006114ff602083610cef565b915061150a826114c9565b602082019050919050565b6000602082019050818103600083015261152e816114f2565b9050919050565b600060608201905061154a6000830186610d7d565b818103602083015261155c8185610d44565b905061156b6040830184610d7d565b94935050505056fea26469706673582212206db882b7c95eba05e2eff23418b338f14271a15808fa2add9831c0dedaf45b1264736f6c634300080d0033",
  "immutableReferences": {},
  "source": "// SPDX-License-Identifier: MIT\npragma solidity ^0.8.0;\n\nimport \"./zombiefactory.sol\";\n\n// this is an interface of a function of the ctyptokitty contract\nabstract contract KittyInterface {\n  function getKitty(uint256 _id) virtual external view returns (\n    bool isGestating,\n    bool isReady,\n    uint256 cooldownIndex,\n    uint256 nextActionAt,\n    uint256 siringWithId,\n    uint256 birthTime,\n    uint256 matronId,\n    uint256 sireId,\n    uint256 generation,\n    uint256 genes\n  );\n}\n\ncontract ZombieFeeding is ZombieFactory {\n\n  KittyInterface kittyContract;\n\n  modifier onlyOwnerOf(uint _zombieId) {\n    require(msg.sender == zombieToOwner[_zombieId]);\n    _;\n  }\n\n  function setKittyContractAddress(address _address) external onlyOwner {\n    kittyContract = KittyInterface(_address);\n  }\n\n  // storage keyword -> points to the exact Zombie struct in the storage so any changes made in the function will be written to the blockchain\n  function _triggerCooldown(Zombie storage _zombie) internal {\n    _zombie.readyTime = uint32(block.timestamp + cooldownTime);\n  }\n\n  function _isReady(Zombie storage _zombie) internal view returns (bool) {\n      return (_zombie.readyTime <= block.timestamp);\n  }\n\n  function feedAndMultiply(uint _zombieId, uint _targetDna, string memory _species) internal onlyOwnerOf(_zombieId) {\n    Zombie storage myZombie = zombies[_zombieId];\n    require(_isReady(myZombie));\n    _targetDna = _targetDna % dnaModulus;\n    uint newDna = (myZombie.dna + _targetDna) / 2;\n    // we cant directly compare strings so we convert to a hash and compare the hashes\n    if (keccak256(abi.encodePacked(_species)) == keccak256(abi.encodePacked(\"kitty\"))) {\n      newDna = newDna - newDna % 100 + 99;\n    }\n    _createZombie(\"NoName\", newDna);\n    _triggerCooldown(myZombie);\n  }\n\n  function feedOnKitty(uint _zombieId, uint _kittyId) public {\n    uint kittyDna;\n    // this is how we deconstruct a tuple so we can get only the values that we're interested in.\n    (,,,,,,,,,kittyDna) = kittyContract.getKitty(_kittyId);\n    feedAndMultiply(_zombieId, kittyDna, \"kitty\");\n  }\n}\n",
  "sourcePath": "/Users/vasilis/Projects/cryptozombi/contracts/zombiefeeding.sol",
  "compiler": {
    "name": "solc",
    "version": "0.8.13+commit.abaa5c0e.Emscripten.clang"
  },
  "schemaVersion": "3.4.10",
  "updatedAt": "2022-10-19T07:45:04.506Z",
  "devdoc": {
    "kind": "dev",
    "methods": {
      "owner()": {
        "details": "Returns the address of the current owner."
      },
      "renounceOwnership()": {
        "details": "Leaves the contract without owner. It will not be possible to call `onlyOwner` functions anymore. Can only be called by the current owner. NOTE: Renouncing ownership will leave the contract without an owner, thereby removing any functionality that is only available to the owner."
      },
      "transferOwnership(address)": {
        "details": "Transfers ownership of the contract to a new account (`newOwner`). Can only be called by the current owner."
      }
    },
    "version": 1
  },
  "userdoc": {
    "kind": "user",
    "methods": {},
    "version": 1
  }
}